S0100000377365676D656E742E73726563EA
S11300000C942A000C9447000C9447000C9447006D
S11300100C9447000C9447000C9447000C94470040
S11300200C9447000C9447000C9447000C94470030
S11300300C9447000C9447000C9447000C94470020
S11300400C9447000C9447000C9447000C94470010
S11300500C94470011241FBECFE5D8E0DEBFCDBF0E
S113006010E0A0E6B0E0E2EAF3E002C005900D92F1
S1130070A036B107D9F710E0A0E6B0E001C01D92A8
S1130080A036B107E1F70E9449000C94CF010C940B
S1130090000080E00E947A0181E00E947A0110E071
S11300A0C0E00AE080E00E94890181E00E948901A9
S11300B0D02F80E00E949A0181E06C2F0E94AB0156
S11300C062E370E080E090E00E94B801CF5FCA3044
S11300D018F4D15071F7E6CF1F5F81E00E949A01B6
S11300E080E00E94890180E0612F0E94AB0162E3FD
S11300F070E080E090E00E94B801C0E0EACF813077
S113010049F0813028F0823039F0833041F406C060
S11301106ABB089567BB089564BB089561BB0895E5
S1130120813049F0813028F0823039F0833041F455
S113013006C06BBB089568BB089565BB089562BB98
S11301400895813059F0813028F0823059F083309D
S113015081F40CC08BB380958BBB089588B38095D4
S113016088BB089585B3809585BB089582B3809537
S113017082BB0895813049F0813028F0823039F013
S1130180833041F406C09BB305C098B303C095B354
S113019001C092B3892F0895442319F04F3FD1F53C
S11301A021C0813069F0813028F0823079F08330C9
S11301B0C9F412C08AB3962F909589238ABB1BC0B9
S11301C087B3962F9095892387BB19C084B3962F44
S11301D09095892384BB17C081B3962F909589236A
S11301E081BB15C0813059F0813028F0823059F03C
S11301F0833081F40CC08AB3682B6ABB089587B33B
S1130200682B67BB089584B3682B64BB089581B3DE
S1130210682B61BB0895442319F04F3FB1F51DC00D
S1130220813061F0813028F0823069F0833069F5E3
S11302300FC08BB3609568236BBB089588B360953A
S1130240682368BB089585B36095682365BB0895EA
S113025082B36095682362BB0895813059F0813080
S113026028F0823059F0833081F40CC08BB3682BB2
S11302706BBB089588B3682B68BB089585B3682B5E
S113028065BB089582B3682B62BB0895813059F031
S1130290813028F0823059F0833081F40CC08BB364
S11302A068276BBB089588B3682768BB089585B336
S11302B0682765BB089582B3682762BB08958130BF
S11302C051F0813028F0823049F0833069F409C05C
S11302D089B368230AC086B3682307C083B368233D
S11302E004C080B3682301C060E081E0662309F4A0
S11302F080E00895882319F0813051F405C081E02D
S11303006FEF0E947F00089581E06FEF0E947F00ED
S11303100895882319F0813061F406C083E061E018
S11303204FEF0E940B01089583E062E04FEF0E94BB
S11303300B010895882319F0813061F406C083E02D
S113034061E040E00E940B01089583E062E040E038
S11303500E940B010895882319F0813041F404C0F0
S113036081E00E949000089581E00E949000089529
S1130370AB01BC01411551056105710561F4089596
S11303800196E5E08C3D9E07D9F74150504060400E
S1130390704019F4089520E030E0C901F1CFF894D9
S10503A0FFCF89
S9030000FC
