:100000000C942A000C9447000C9447000C94470071
:100010000C9447000C9447000C9447000C94470044
:100020000C9447000C9447000C9447000C948301F7
:100030000C9447000C9447000C9447000C94470024
:100040000C9447000C9447000C9447000C94470014
:100050000C94470011241FBECFE5D8E0DEBFCDBF12
:1000600010E0A0E6B0E0EEE7F6E002C005900D92E9
:10007000A036B107D9F710E0A0E6B0E001C01D92AC
:10008000A536B107E1F70E9449000C943D030C949A
:10009000000080E00E94280281E00E94280210E017
:1000A000C0E00AE080E00E94370281E00E9437024F
:1000B000D02F80E00E94480281E06C2F0E945902FC
:1000C0000E94810282E390E00E94B802CF5FCA30B2
:1000D00018F4D15071F7E6CF1F5F81E00E9448020B
:1000E00080E00E94370280E0612F0E9459020E9446
:1000F000810282E390E00E94B802C0E0EACF813042
:1001000049F0813028F0823039F0833041F406C064
:100110006ABB089567BB089564BB089561BB0895E9
:10012000813049F0813028F0823039F0833041F459
:1001300006C06BBB089568BB089565BB089562BB9C
:100140000895813059F0813028F0823059F08330A1
:1001500081F40CC08BB380958BBB089588B38095D8
:1001600088BB089585B3809585BB089582B380953B
:1001700082BB0895813049F0813028F0823039F017
:10018000833049F406C08BB3089588B3089585B3CE
:10019000089582B3089580E00895442319F04F3FF5
:1001A000D1F521C0813069F0813028F0823079F0BA
:1001B0008330C9F412C08AB3962F909589238ABBE5
:1001C0001BC087B3962F9095892387BB19C084B332
:1001D000962F9095892384BB17C081B3962F909555
:1001E000892381BB15C0813059F0813028F08230DD
:1001F00059F0833081F40CC08AB3682B6ABB089530
:1002000087B3682B67BB089584B3682B64BB0895DC
:1002100081B3682B61BB0895442319F04F3FB1F5BA
:100220001DC0813061F0813028F0823069F0833068
:1002300069F50FC08BB3609568236BBB089588B3D5
:100240006095682368BB089585B36095682365BB96
:10025000089582B36095682362BB0895813059F098
:10026000813028F0823059F0833081F40CC08BB398
:10027000682B6BBB089588B3682B68BB089585B362
:10028000682B65BB089582B3682B62BB08958130EB
:1002900059F0813028F0823059F0833081F40CC05D
:1002A0008BB368276BBB089588B3682768BB089534
:1002B00085B3682765BB089582B3682762BB08953C
:1002C000813051F0813028F0823049F0833069F478
:1002D00009C089B368230AC086B3682307C083B303
:1002E000682304C080B3682301C060E081E0662316
:1002F00009F480E008958FB780688FBF08958FB7A5
:100300008F778FBF08951F920F920FB60F9211240F
:100310008F939F93AF93BF93809161009091620000
:10032000A0916300B09164000196A11DB11D80935E
:10033000610090936200A0936300B0936400BF914A
:10034000AF919F918F910F900FBE0F901F901895B6
:10035000813069F0813028F0823079F08330C1F447
:1003600012C081E060E14FEF0E94CD00089581E06E
:1003700060E24FEF0E94CD00089581E060E44FEF0E
:100380000E94CD00089581E060E84FEF0E94CD000B
:100390000895813069F0813028F0823079F083301F
:1003A000C1F412C081E060E14FEF0E940C0108959A
:1003B00081E060E24FEF0E940C01089581E060E46B
:1003C0004FEF0E940C01089581E060E84FEF0E941A
:1003D0000C010895813069F0813028F0823079F085
:1003E0008330C1F412C081E060E140E00E940C0162
:1003F000089581E060E240E00E940C01089581E0F0
:1004000060E440E00E940C01089581E060E840E073
:100410000E940C010895813061F0813028F0823013
:1004200069F08330A1F40FC081E060E10E944701D0
:10043000089581E060E20E944701089581E060E450
:100440000E944701089581E060E80E9447010895F5
:10045000882319F0813051F405C081E06FEF0E94CC
:100460007F00089581E06FEF0E947F000895882348
:1004700019F0813061F406C083E061E04FEF0E9423
:100480000C01089583E062E04FEF0E940C01089593
:10049000882319F0813061F406C083E061E040E018
:1004A0000E940C01089583E062E040E00E940C018C
:1004B0000895882319F0813041F404C081E00E943E
:1004C0009000089581E00E9490000895AB01BC0166
:1004D000411551056105710561F408950196E5E046
:1004E0008C3D9E07D9F7415050406040704019F450
:1004F000089520E030E0C901F1CF82BF089582B7AE
:10050000089583B7887F83BF93B780916000892B5C
:1005100083BF089583B7887F83BF0895EF920F93B9
:10052000442319F40E948A0220C093B7892B682BB8
:10053000642B63BF4093600022BF0CBF81E0E816CC
:1005400049F0E81620F082E0E81679F409C089B78E
:1005500019BE0BC00E947B0189B7816089BF05C0AD
:100560000E947B0189B7826089BF0F91EF90089547
:10057000CF93DF93EC011092610010926200109211
:1005800063001092640080E30E947D02CC0FDD1FA7
:10059000CC0FDD1FCC0FDD1FAE0160E070E080915D
:1005A000610090916200A0916300B09164004817CF
:1005B00059076A077B0798F7DF91CF9108958F92CB
:1005C0009F92AF92BF92CF92DF92EF92FF924B0138
:1005D0005C01109261001092620010926300109210
:1005E00064006115710581059105E9F0CC24DD24D5
:1005F00076018EEF0E947D028091610090916200F1
:10060000A0916300B091640082309105A105B1050D
:1006100098F30894C11CD11CE11CF11CC814D90426
:10062000EA04FB0431F7FF90EF90DF90CF90BF908A
:10063000AF909F908F900895109261001092620089
:1006400010926300109264008BE90E947D028091F9
:10065000610090916200A0916300B09164008230CB
:100660009105A105B10598F3089508950895089599
:0E06700008950895089508950895F894FFCF11
:00000001FF
